{
  "contractName": "ERC165",
  "abi": [
    {
      "inputs": [],
      "stateMutability": "nonpayable",
      "type": "constructor"
    },
    {
      "inputs": [
        {
          "internalType": "bytes4",
          "name": "",
          "type": "bytes4"
        }
      ],
      "name": "_suportedInterfaces",
      "outputs": [
        {
          "internalType": "bool",
          "name": "",
          "type": "bool"
        }
      ],
      "stateMutability": "view",
      "type": "function",
      "constant": true
    },
    {
      "inputs": [
        {
          "internalType": "bytes4",
          "name": "interfaceID",
          "type": "bytes4"
        }
      ],
      "name": "supportsInterface",
      "outputs": [
        {
          "internalType": "bool",
          "name": "",
          "type": "bool"
        }
      ],
      "stateMutability": "view",
      "type": "function",
      "constant": true
    },
    {
      "inputs": [
        {
          "internalType": "bytes4",
          "name": "interfaceId",
          "type": "bytes4"
        }
      ],
      "name": "_registerInterface",
      "outputs": [],
      "stateMutability": "nonpayable",
      "type": "function"
    }
  ],
  "bytecode": "0x608060405234801561001057600080fd5b506100627f068417d99438efa57c62b8a2f5c6aa9edc2f5916afbf754b62df6d6bc528f1637f01ffc9a7a5cef8baa21ed3c5c0d7e23accb804b619e9333b597f47a0d84076e21861006760201b60201c565b6101b9565b63ffffffff60e01b817bffffffffffffffffffffffffffffffffffffffffffffffffffffffff191614156100d0576040517f08c379a00000000000000000000000000000000000000000000000000000000081526004016100c790610199565b60405180910390fd5b6001600080837bffffffffffffffffffffffffffffffffffffffffffffffffffffffff19167bffffffffffffffffffffffffffffffffffffffffffffffffffffffff1916815260200190815260200160002060006101000a81548160ff02191690831515021790555050565b600082825260208201905092915050565b7f455243313634203d20496e76616c696420696e746572666163652e0000000000600082015250565b6000610183601b8361013c565b915061018e8261014d565b602082019050919050565b600060208201905081810360008301526101b281610176565b9050919050565b610391806101c86000396000f3fe608060405234801561001057600080fd5b50600436106100415760003560e01c806301ffc9a714610046578063068417d91461007657806350ee2e5114610092575b600080fd5b610060600480360381019061005b919061027b565b6100c2565b60405161006d91906102c3565b60405180910390f35b610090600480360381019061008b919061027b565b610129565b005b6100ac60048036038101906100a7919061027b565b6101fe565b6040516100b991906102c3565b60405180910390f35b6000806000837bffffffffffffffffffffffffffffffffffffffffffffffffffffffff19167bffffffffffffffffffffffffffffffffffffffffffffffffffffffff1916815260200190815260200160002060009054906101000a900460ff169050919050565b63ffffffff60e01b817bffffffffffffffffffffffffffffffffffffffffffffffffffffffff19161415610192576040517f08c379a00000000000000000000000000000000000000000000000000000000081526004016101899061033b565b60405180910390fd5b6001600080837bffffffffffffffffffffffffffffffffffffffffffffffffffffffff19167bffffffffffffffffffffffffffffffffffffffffffffffffffffffff1916815260200190815260200160002060006101000a81548160ff02191690831515021790555050565b60006020528060005260406000206000915054906101000a900460ff1681565b600080fd5b60007fffffffff0000000000000000000000000000000000000000000000000000000082169050919050565b61025881610223565b811461026357600080fd5b50565b6000813590506102758161024f565b92915050565b6000602082840312156102915761029061021e565b5b600061029f84828501610266565b91505092915050565b60008115159050919050565b6102bd816102a8565b82525050565b60006020820190506102d860008301846102b4565b92915050565b600082825260208201905092915050565b7f455243313634203d20496e76616c696420696e746572666163652e0000000000600082015250565b6000610325601b836102de565b9150610330826102ef565b602082019050919050565b6000602082019050818103600083015261035481610318565b905091905056fea2646970667358221220c05b2ade1c8d093b529f0c1532cf1403187dfeae97f20fa6540cd95ecd12c2b964736f6c634300080b0033",
  "immutableReferences": {},
  "source": "// SPDX-License-Identifier: MIT\r\npragma solidity ^0.8.0;\r\n\r\nimport './interfaces/IERC165.sol';\r\n\r\n\r\ncontract ERC165 is IERC165 {\r\n    constructor() {\r\n        _registerInterface(bytes4(keccak256('supportsInterface(bytes4)') ^ \r\n            keccak256('_registerInterface(bytes4)')));\r\n    }\r\n\r\n    mapping (bytes4 => bool) public _suportedInterfaces;\r\n\r\n    function supportsInterface(bytes4 interfaceID) external view override returns (bool) {\r\n        return _suportedInterfaces[interfaceID];\r\n    }\r\n\r\n    function _registerInterface(bytes4 interfaceId) public override {\r\n        require(interfaceId != 0xffffffff, 'ERC164 = Invalid interface.');\r\n        _suportedInterfaces[interfaceId] = true;\r\n    }\r\n}",
  "sourcePath": "D:\\Programao\\NFTs\\nft-main\\src\\contract\\ERC165.sol",
  "compiler": {
    "name": "solc",
    "version": "0.8.11+commit.d7f03943.Emscripten.clang"
  },
  "schemaVersion": "3.4.4",
  "updatedAt": "2022-04-18T23:51:53.166Z",
  "networkType": "ethereum",
  "devdoc": {
    "kind": "dev",
    "methods": {},
    "version": 1
  },
  "userdoc": {
    "kind": "user",
    "methods": {},
    "version": 1
  }
}