{
  "contractName": "ERC721Enumerable",
  "abi": [
    {
      "inputs": [],
      "stateMutability": "nonpayable",
      "type": "constructor"
    },
    {
      "anonymous": false,
      "inputs": [
        {
          "indexed": true,
          "internalType": "address",
          "name": "_from",
          "type": "address"
        },
        {
          "indexed": true,
          "internalType": "address",
          "name": "_to",
          "type": "address"
        },
        {
          "indexed": true,
          "internalType": "uint256",
          "name": "_tokenId",
          "type": "uint256"
        }
      ],
      "name": "Approval",
      "type": "event"
    },
    {
      "anonymous": false,
      "inputs": [
        {
          "indexed": true,
          "internalType": "address",
          "name": "from",
          "type": "address"
        },
        {
          "indexed": true,
          "internalType": "address",
          "name": "to",
          "type": "address"
        },
        {
          "indexed": true,
          "internalType": "uint256",
          "name": "tokenId",
          "type": "uint256"
        }
      ],
      "name": "Transfer",
      "type": "event"
    },
    {
      "inputs": [
        {
          "internalType": "bytes4",
          "name": "interfaceId",
          "type": "bytes4"
        }
      ],
      "name": "_registerInterface",
      "outputs": [],
      "stateMutability": "nonpayable",
      "type": "function"
    },
    {
      "inputs": [
        {
          "internalType": "bytes4",
          "name": "",
          "type": "bytes4"
        }
      ],
      "name": "_suportedInterfaces",
      "outputs": [
        {
          "internalType": "bool",
          "name": "",
          "type": "bool"
        }
      ],
      "stateMutability": "view",
      "type": "function"
    },
    {
      "inputs": [
        {
          "internalType": "address",
          "name": "_to",
          "type": "address"
        },
        {
          "internalType": "uint256",
          "name": "tokenId",
          "type": "uint256"
        }
      ],
      "name": "approve",
      "outputs": [],
      "stateMutability": "nonpayable",
      "type": "function"
    },
    {
      "inputs": [
        {
          "internalType": "address",
          "name": "_owner",
          "type": "address"
        }
      ],
      "name": "balanceOf",
      "outputs": [
        {
          "internalType": "uint256",
          "name": "",
          "type": "uint256"
        }
      ],
      "stateMutability": "view",
      "type": "function"
    },
    {
      "inputs": [
        {
          "internalType": "uint256",
          "name": "_tokenId",
          "type": "uint256"
        }
      ],
      "name": "ownerOf",
      "outputs": [
        {
          "internalType": "address",
          "name": "",
          "type": "address"
        }
      ],
      "stateMutability": "view",
      "type": "function"
    },
    {
      "inputs": [
        {
          "internalType": "bytes4",
          "name": "interfaceID",
          "type": "bytes4"
        }
      ],
      "name": "supportsInterface",
      "outputs": [
        {
          "internalType": "bool",
          "name": "",
          "type": "bool"
        }
      ],
      "stateMutability": "view",
      "type": "function"
    },
    {
      "inputs": [
        {
          "internalType": "address",
          "name": "_from",
          "type": "address"
        },
        {
          "internalType": "address",
          "name": "_to",
          "type": "address"
        },
        {
          "internalType": "uint256",
          "name": "_tokenId",
          "type": "uint256"
        }
      ],
      "name": "tranferFrom",
      "outputs": [],
      "stateMutability": "nonpayable",
      "type": "function"
    },
    {
      "inputs": [],
      "name": "totalSupply",
      "outputs": [
        {
          "internalType": "uint256",
          "name": "",
          "type": "uint256"
        }
      ],
      "stateMutability": "view",
      "type": "function"
    },
    {
      "inputs": [
        {
          "internalType": "uint256",
          "name": "index",
          "type": "uint256"
        }
      ],
      "name": "tokenByIndex",
      "outputs": [
        {
          "internalType": "uint256",
          "name": "",
          "type": "uint256"
        }
      ],
      "stateMutability": "view",
      "type": "function"
    },
    {
      "inputs": [
        {
          "internalType": "address",
          "name": "to",
          "type": "address"
        },
        {
          "internalType": "uint256",
          "name": "index",
          "type": "uint256"
        }
      ],
      "name": "tokenOfOwnerByIndex",
      "outputs": [
        {
          "internalType": "uint256",
          "name": "",
          "type": "uint256"
        }
      ],
      "stateMutability": "view",
      "type": "function"
    }
  ],
  "bytecode": "0x60806040523480156200001157600080fd5b50620000657f068417d99438efa57c62b8a2f5c6aa9edc2f5916afbf754b62df6d6bc528f1637f01ffc9a7a5cef8baa21ed3c5c0d7e23accb804b619e9333b597f47a0d84076e2186200017760201b60201c565b620000fc7f8c51fd5fcf1f456ec4eb0f32f68d83471264fe082fac12bcbfd2fa4be9eed6c77f1176b7b0bba5f97eb329b5b88bee81cec6bcd49a0d96c6c4ebe3c82134a0bc437f3a6eb71757dfc6e784c1459d26270140c2c147d95ca985c80026fc5301c3eca17f8a7e378434598edc36d108689a030cbc9d7d465de4f74c71bae1028eed6a881b1818186200017760201b60201c565b620001717f8230223f691b981717299fae9549350a0d894555723531f02108b1f522c1a7977f6da5e1284143cdd2d15038a59bde3be031250f00291d64494c12d967b3a4e0c37fc53637662700e6c65104059db8bba34439e0c32483ab7c34e3ccae52c739549518186200017760201b60201c565b620002d2565b63ffffffff60e01b817bffffffffffffffffffffffffffffffffffffffffffffffffffffffff19161415620001e3576040517f08c379a0000000000000000000000000000000000000000000000000000000008152600401620001da90620002b0565b60405180910390fd5b6001600080837bffffffffffffffffffffffffffffffffffffffffffffffffffffffff19167bffffffffffffffffffffffffffffffffffffffffffffffffffffffff1916815260200190815260200160002060006101000a81548160ff02191690831515021790555050565b600082825260208201905092915050565b7f455243313634203d20496e76616c696420696e746572666163652e0000000000600082015250565b600062000298601b836200024f565b9150620002a58262000260565b602082019050919050565b60006020820190508181036000830152620002cb8162000289565b9050919050565b6111b180620002e26000396000f3fe608060405234801561001057600080fd5b506004361061009e5760003560e01c80634f6ccce7116100665780634f6ccce71461015957806350ee2e51146101895780636352211e146101b957806370a08231146101e95780639264a169146102195761009e565b806301ffc9a7146100a3578063068417d9146100d3578063095ea7b3146100ef57806318160ddd1461010b5780632f745c5914610129575b600080fd5b6100bd60048036038101906100b89190610a78565b610235565b6040516100ca9190610ac0565b60405180910390f35b6100ed60048036038101906100e89190610a78565b61029c565b005b61010960048036038101906101049190610b6f565b610371565b005b61011361050d565b6040516101209190610bbe565b60405180910390f35b610143600480360381019061013e9190610b6f565b61051a565b6040516101509190610bbe565b60405180910390f35b610173600480360381019061016e9190610bd9565b6105ca565b6040516101809190610bbe565b60405180910390f35b6101a3600480360381019061019e9190610a78565b61063b565b6040516101b09190610ac0565b60405180910390f35b6101d360048036038101906101ce9190610bd9565b61065b565b6040516101e09190610c15565b60405180910390f35b61020360048036038101906101fe9190610c30565b61070d565b6040516102109190610bbe565b60405180910390f35b610233600480360381019061022e9190610c5d565b6107c5565b005b6000806000837bffffffffffffffffffffffffffffffffffffffffffffffffffffffff19167bffffffffffffffffffffffffffffffffffffffffffffffffffffffff1916815260200190815260200160002060009054906101000a900460ff169050919050565b63ffffffff60e01b817bffffffffffffffffffffffffffffffffffffffffffffffffffffffff19161415610305576040517f08c379a00000000000000000000000000000000000000000000000000000000081526004016102fc90610d0d565b60405180910390fd5b6001600080837bffffffffffffffffffffffffffffffffffffffffffffffffffffffff19167bffffffffffffffffffffffffffffffffffffffffffffffffffffffff1916815260200190815260200160002060006101000a81548160ff02191690831515021790555050565b600061037c8261065b565b90508073ffffffffffffffffffffffffffffffffffffffff168373ffffffffffffffffffffffffffffffffffffffff1614156103ed576040517f08c379a00000000000000000000000000000000000000000000000000000000081526004016103e490610d79565b60405180910390fd5b3373ffffffffffffffffffffffffffffffffffffffff168173ffffffffffffffffffffffffffffffffffffffff161461045b576040517f08c379a000000000000000000000000000000000000000000000000000000000815260040161045290610de5565b60405180910390fd5b826003600084815260200190815260200160002060006101000a81548173ffffffffffffffffffffffffffffffffffffffff021916908373ffffffffffffffffffffffffffffffffffffffff160217905550818373ffffffffffffffffffffffffffffffffffffffff168273ffffffffffffffffffffffffffffffffffffffff167f8c5be1e5ebec7d5bd14f71427d1e84f3dd0314c0f7b2291e5b200ac8c7c3b92560405160405180910390a4505050565b6000600480549050905090565b60006105258361070d565b8210610566576040517f08c379a000000000000000000000000000000000000000000000000000000000815260040161055d90610e51565b60405180910390fd5b600660008473ffffffffffffffffffffffffffffffffffffffff1673ffffffffffffffffffffffffffffffffffffffff16815260200190815260200160002082815481106105b7576105b6610e71565b5b9060005260206000200154905092915050565b60006105d461050d565b8210610615576040517f08c379a000000000000000000000000000000000000000000000000000000000815260040161060c90610eec565b60405180910390fd5b6004828154811061062957610628610e71565b5b90600052602060002001549050919050565b60006020528060005260406000206000915054906101000a900460ff1681565b6000806001600084815260200190815260200160002060009054906101000a900473ffffffffffffffffffffffffffffffffffffffff169050600073ffffffffffffffffffffffffffffffffffffffff168173ffffffffffffffffffffffffffffffffffffffff161415610704576040517f08c379a00000000000000000000000000000000000000000000000000000000081526004016106fb90610f7e565b60405180910390fd5b80915050919050565b60008073ffffffffffffffffffffffffffffffffffffffff168273ffffffffffffffffffffffffffffffffffffffff16141561077e576040517f08c379a000000000000000000000000000000000000000000000000000000000815260040161077590610f7e565b60405180910390fd5b600260008373ffffffffffffffffffffffffffffffffffffffff1673ffffffffffffffffffffffffffffffffffffffff168152602001908152602001600020549050919050565b6107d08383836107d5565b505050565b600073ffffffffffffffffffffffffffffffffffffffff168273ffffffffffffffffffffffffffffffffffffffff161415610845576040517f08c379a000000000000000000000000000000000000000000000000000000000815260040161083c90611010565b60405180910390fd5b8273ffffffffffffffffffffffffffffffffffffffff166108658261065b565b73ffffffffffffffffffffffffffffffffffffffff16146108bb576040517f08c379a00000000000000000000000000000000000000000000000000000000081526004016108b2906110a2565b60405180910390fd5b6001600260008473ffffffffffffffffffffffffffffffffffffffff1673ffffffffffffffffffffffffffffffffffffffff168152602001908152602001600020600082825461090b91906110f1565b925050819055506001600260008573ffffffffffffffffffffffffffffffffffffffff1673ffffffffffffffffffffffffffffffffffffffff16815260200190815260200160002060008282546109629190611147565b92505081905550816001600083815260200190815260200160002060006101000a81548173ffffffffffffffffffffffffffffffffffffffff021916908373ffffffffffffffffffffffffffffffffffffffff160217905550808273ffffffffffffffffffffffffffffffffffffffff168473ffffffffffffffffffffffffffffffffffffffff167fddf252ad1be2c89b69c2b068fc378daa952ba7f163c4a11628f55a4df523b3ef60405160405180910390a4505050565b600080fd5b60007fffffffff0000000000000000000000000000000000000000000000000000000082169050919050565b610a5581610a20565b8114610a6057600080fd5b50565b600081359050610a7281610a4c565b92915050565b600060208284031215610a8e57610a8d610a1b565b5b6000610a9c84828501610a63565b91505092915050565b60008115159050919050565b610aba81610aa5565b82525050565b6000602082019050610ad56000830184610ab1565b92915050565b600073ffffffffffffffffffffffffffffffffffffffff82169050919050565b6000610b0682610adb565b9050919050565b610b1681610afb565b8114610b2157600080fd5b50565b600081359050610b3381610b0d565b92915050565b6000819050919050565b610b4c81610b39565b8114610b5757600080fd5b50565b600081359050610b6981610b43565b92915050565b60008060408385031215610b8657610b85610a1b565b5b6000610b9485828601610b24565b9250506020610ba585828601610b5a565b9150509250929050565b610bb881610b39565b82525050565b6000602082019050610bd36000830184610baf565b92915050565b600060208284031215610bef57610bee610a1b565b5b6000610bfd84828501610b5a565b91505092915050565b610c0f81610afb565b82525050565b6000602082019050610c2a6000830184610c06565b92915050565b600060208284031215610c4657610c45610a1b565b5b6000610c5484828501610b24565b91505092915050565b600080600060608486031215610c7657610c75610a1b565b5b6000610c8486828701610b24565b9350506020610c9586828701610b24565b9250506040610ca686828701610b5a565b9150509250925092565b600082825260208201905092915050565b7f455243313634203d20496e76616c696420696e746572666163652e0000000000600082015250565b6000610cf7601b83610cb0565b9150610d0282610cc1565b602082019050919050565b60006020820190508181036000830152610d2681610cea565b9050919050565b7f4572726f72202d20617070726f76616c2063757272656e74206f776e65720000600082015250565b6000610d63601e83610cb0565b9150610d6e82610d2d565b602082019050919050565b60006020820190508181036000830152610d9281610d56565b9050919050565b7f43757272656e742063616c6c6572206e6f7420746865206f776e657200000000600082015250565b6000610dcf601c83610cb0565b9150610dda82610d99565b602082019050919050565b60006020820190508181036000830152610dfe81610dc2565b9050919050565b7f4f776e657220696e646578206973206f757420626f756e640000000000000000600082015250565b6000610e3b601883610cb0565b9150610e4682610e05565b602082019050919050565b60006020820190508181036000830152610e6a81610e2e565b9050919050565b7f4e487b7100000000000000000000000000000000000000000000000000000000600052603260045260246000fd5b7f476c6f62616c20696e646578206973206f757420626f756e6400000000000000600082015250565b6000610ed6601983610cb0565b9150610ee182610ea0565b602082019050919050565b60006020820190508181036000830152610f0581610ec9565b9050919050565b7f4f776e657220717565727920666f72206e6f6e2d6578697374656e7420746f6b60008201527f656e000000000000000000000000000000000000000000000000000000000000602082015250565b6000610f68602283610cb0565b9150610f7382610f0c565b604082019050919050565b60006020820190508181036000830152610f9781610f5b565b9050919050565b7f4552433732313a207472616e66657220746f20746865207a65726f206164647260008201527f6573732e00000000000000000000000000000000000000000000000000000000602082015250565b6000610ffa602483610cb0565b915061100582610f9e565b604082019050919050565b6000602082019050818103600083015261102981610fed565b9050919050565b7f547279696e6720746f207472616e66657220746f6b656e20616e20616464726560008201527f737320646f6573206e6f74206f776e0000000000000000000000000000000000602082015250565b600061108c602f83610cb0565b915061109782611030565b604082019050919050565b600060208201905081810360008301526110bb8161107f565b9050919050565b7f4e487b7100000000000000000000000000000000000000000000000000000000600052601160045260246000fd5b60006110fc82610b39565b915061110783610b39565b9250827fffffffffffffffffffffffffffffffffffffffffffffffffffffffffffffffff0382111561113c5761113b6110c2565b5b828201905092915050565b600061115282610b39565b915061115d83610b39565b9250828210156111705761116f6110c2565b5b82820390509291505056fea26469706673582212203d54e0cbc10dd1f1b6ec8dd659a386d1b31e2a0f0417b6cf4dcb5e54c8a197b964736f6c634300080b0033",
  "immutableReferences": {},
  "source": "// SPDX-License-Identifier: MIT\r\npragma solidity ^0.8.0;\r\n\r\nimport './ERC721.sol';\r\nimport './interfaces/IERC721Enumerable.sol';\r\n\r\ncontract ERC721Enumerable is ERC721, IERC721Enumerable{\r\n    constructor() {\r\n        _registerInterface(bytes4(keccak256('totalSupply(bytes4)') ^ \r\n            keccak256('tokenByIndex(bytes4)') ^ \r\n            keccak256('tokenOfOwnerByIndex(bytes4)')));\r\n    }\r\n\r\n    uint256[] private _allTokens;\r\n\r\n    mapping (uint256 => uint256) private _allTokensIndex;    // index do arrai tokens com id de token\r\n    mapping (address => uint256[]) private _ownedTokens;     //relao do dono com a lista de token que  dono\r\n    mapping (uint256 => uint256) private _ownedTokensIndex;  // dono de cada index da lista de tokken\r\n\r\n    function _mint(address to, uint256 tokenId) internal override(ERC721) {\r\n        super._mint(to, tokenId);\r\n\r\n        _addTokensToAllTokenEnumaration(tokenId);\r\n        _addTokensToOwnerEnumaration(to, tokenId);\r\n    }\r\n\r\n    function _addTokensToAllTokenEnumaration(uint256 tokenId) private {\r\n        _allTokensIndex[tokenId] = _allTokens.length;\r\n        _allTokens.push(tokenId);\r\n    }\r\n\r\n    function _addTokensToOwnerEnumaration(address to, uint256 tokenId) private {\r\n        _ownedTokensIndex[tokenId] = _ownedTokens[to].length;\r\n        _ownedTokens[to].push(tokenId);\r\n    }\r\n\r\n    function totalSupply() public view override returns (uint256) {\r\n        return _allTokens.length;\r\n    }\r\n\r\n    //funes para debbugin\r\n    function tokenByIndex(uint256 index) public view override returns(uint256) {\r\n        require(index < totalSupply(), 'Global index is out bound');\r\n\r\n        return _allTokens[index];\r\n    }\r\n\r\n    function tokenOfOwnerByIndex(address to, uint256 index) public view override returns(uint256) {\r\n        require(index < balanceOf(to), 'Owner index is out bound');\r\n        \r\n        return _ownedTokens[to][index];\r\n    }\r\n}",
  "sourcePath": "D:\\Programao\\NFTs\\nft-main\\src\\contract\\ERC721Enumerable.sol",
  "compiler": {
    "name": "solc",
    "version": "0.8.11+commit.d7f03943.Emscripten.clang"
  },
  "schemaVersion": "3.4.4",
  "updatedAt": "2022-04-18T23:51:40.810Z",
  "devdoc": {
    "kind": "dev",
    "methods": {},
    "version": 1
  },
  "userdoc": {
    "kind": "user",
    "methods": {},
    "version": 1
  }
}