{
  "contractName": "ERC721",
  "abi": [
    {
      "inputs": [],
      "stateMutability": "nonpayable",
      "type": "constructor"
    },
    {
      "anonymous": false,
      "inputs": [
        {
          "indexed": true,
          "internalType": "address",
          "name": "_from",
          "type": "address"
        },
        {
          "indexed": true,
          "internalType": "address",
          "name": "_to",
          "type": "address"
        },
        {
          "indexed": true,
          "internalType": "uint256",
          "name": "_tokenId",
          "type": "uint256"
        }
      ],
      "name": "Approval",
      "type": "event"
    },
    {
      "anonymous": false,
      "inputs": [
        {
          "indexed": true,
          "internalType": "address",
          "name": "from",
          "type": "address"
        },
        {
          "indexed": true,
          "internalType": "address",
          "name": "to",
          "type": "address"
        },
        {
          "indexed": true,
          "internalType": "uint256",
          "name": "tokenId",
          "type": "uint256"
        }
      ],
      "name": "Transfer",
      "type": "event"
    },
    {
      "inputs": [
        {
          "internalType": "bytes4",
          "name": "interfaceId",
          "type": "bytes4"
        }
      ],
      "name": "_registerInterface",
      "outputs": [],
      "stateMutability": "nonpayable",
      "type": "function"
    },
    {
      "inputs": [
        {
          "internalType": "bytes4",
          "name": "",
          "type": "bytes4"
        }
      ],
      "name": "_suportedInterfaces",
      "outputs": [
        {
          "internalType": "bool",
          "name": "",
          "type": "bool"
        }
      ],
      "stateMutability": "view",
      "type": "function"
    },
    {
      "inputs": [
        {
          "internalType": "bytes4",
          "name": "interfaceID",
          "type": "bytes4"
        }
      ],
      "name": "supportsInterface",
      "outputs": [
        {
          "internalType": "bool",
          "name": "",
          "type": "bool"
        }
      ],
      "stateMutability": "view",
      "type": "function"
    },
    {
      "inputs": [
        {
          "internalType": "address",
          "name": "_owner",
          "type": "address"
        }
      ],
      "name": "balanceOf",
      "outputs": [
        {
          "internalType": "uint256",
          "name": "",
          "type": "uint256"
        }
      ],
      "stateMutability": "view",
      "type": "function"
    },
    {
      "inputs": [
        {
          "internalType": "uint256",
          "name": "_tokenId",
          "type": "uint256"
        }
      ],
      "name": "ownerOf",
      "outputs": [
        {
          "internalType": "address",
          "name": "",
          "type": "address"
        }
      ],
      "stateMutability": "view",
      "type": "function"
    },
    {
      "inputs": [
        {
          "internalType": "address",
          "name": "_from",
          "type": "address"
        },
        {
          "internalType": "address",
          "name": "_to",
          "type": "address"
        },
        {
          "internalType": "uint256",
          "name": "_tokenId",
          "type": "uint256"
        }
      ],
      "name": "tranferFrom",
      "outputs": [],
      "stateMutability": "nonpayable",
      "type": "function"
    },
    {
      "inputs": [
        {
          "internalType": "address",
          "name": "_to",
          "type": "address"
        },
        {
          "internalType": "uint256",
          "name": "tokenId",
          "type": "uint256"
        }
      ],
      "name": "approve",
      "outputs": [],
      "stateMutability": "nonpayable",
      "type": "function"
    }
  ],
  "bytecode": "0x608060405234801561001057600080fd5b506100627f068417d99438efa57c62b8a2f5c6aa9edc2f5916afbf754b62df6d6bc528f1637f01ffc9a7a5cef8baa21ed3c5c0d7e23accb804b619e9333b597f47a0d84076e2186100fc60201b60201c565b6100f77f8c51fd5fcf1f456ec4eb0f32f68d83471264fe082fac12bcbfd2fa4be9eed6c77f1176b7b0bba5f97eb329b5b88bee81cec6bcd49a0d96c6c4ebe3c82134a0bc437f3a6eb71757dfc6e784c1459d26270140c2c147d95ca985c80026fc5301c3eca17f8a7e378434598edc36d108689a030cbc9d7d465de4f74c71bae1028eed6a881b1818186100fc60201b60201c565b61024e565b63ffffffff60e01b817bffffffffffffffffffffffffffffffffffffffffffffffffffffffff19161415610165576040517f08c379a000000000000000000000000000000000000000000000000000000000815260040161015c9061022e565b60405180910390fd5b6001600080837bffffffffffffffffffffffffffffffffffffffffffffffffffffffff19167bffffffffffffffffffffffffffffffffffffffffffffffffffffffff1916815260200190815260200160002060006101000a81548160ff02191690831515021790555050565b600082825260208201905092915050565b7f455243313634203d20496e76616c696420696e746572666163652e0000000000600082015250565b6000610218601b836101d1565b9150610223826101e2565b602082019050919050565b600060208201905081810360008301526102478161020b565b9050919050565b610edd8061025d6000396000f3fe608060405234801561001057600080fd5b506004361061007d5760003560e01c806350ee2e511161005b57806350ee2e51146100ea5780636352211e1461011a57806370a082311461014a5780639264a1691461017a5761007d565b806301ffc9a714610082578063068417d9146100b2578063095ea7b3146100ce575b600080fd5b61009c600480360381019061009791906108ab565b610196565b6040516100a991906108f3565b60405180910390f35b6100cc60048036038101906100c791906108ab565b6101fd565b005b6100e860048036038101906100e391906109a2565b6102d2565b005b61010460048036038101906100ff91906108ab565b61046e565b60405161011191906108f3565b60405180910390f35b610134600480360381019061012f91906109e2565b61048e565b6040516101419190610a1e565b60405180910390f35b610164600480360381019061015f9190610a39565b610540565b6040516101719190610a75565b60405180910390f35b610194600480360381019061018f9190610a90565b6105f8565b005b6000806000837bffffffffffffffffffffffffffffffffffffffffffffffffffffffff19167bffffffffffffffffffffffffffffffffffffffffffffffffffffffff1916815260200190815260200160002060009054906101000a900460ff169050919050565b63ffffffff60e01b817bffffffffffffffffffffffffffffffffffffffffffffffffffffffff19161415610266576040517f08c379a000000000000000000000000000000000000000000000000000000000815260040161025d90610b40565b60405180910390fd5b6001600080837bffffffffffffffffffffffffffffffffffffffffffffffffffffffff19167bffffffffffffffffffffffffffffffffffffffffffffffffffffffff1916815260200190815260200160002060006101000a81548160ff02191690831515021790555050565b60006102dd8261048e565b90508073ffffffffffffffffffffffffffffffffffffffff168373ffffffffffffffffffffffffffffffffffffffff16141561034e576040517f08c379a000000000000000000000000000000000000000000000000000000000815260040161034590610bac565b60405180910390fd5b3373ffffffffffffffffffffffffffffffffffffffff168173ffffffffffffffffffffffffffffffffffffffff16146103bc576040517f08c379a00000000000000000000000000000000000000000000000000000000081526004016103b390610c18565b60405180910390fd5b826003600084815260200190815260200160002060006101000a81548173ffffffffffffffffffffffffffffffffffffffff021916908373ffffffffffffffffffffffffffffffffffffffff160217905550818373ffffffffffffffffffffffffffffffffffffffff168273ffffffffffffffffffffffffffffffffffffffff167f8c5be1e5ebec7d5bd14f71427d1e84f3dd0314c0f7b2291e5b200ac8c7c3b92560405160405180910390a4505050565b60006020528060005260406000206000915054906101000a900460ff1681565b6000806001600084815260200190815260200160002060009054906101000a900473ffffffffffffffffffffffffffffffffffffffff169050600073ffffffffffffffffffffffffffffffffffffffff168173ffffffffffffffffffffffffffffffffffffffff161415610537576040517f08c379a000000000000000000000000000000000000000000000000000000000815260040161052e90610caa565b60405180910390fd5b80915050919050565b60008073ffffffffffffffffffffffffffffffffffffffff168273ffffffffffffffffffffffffffffffffffffffff1614156105b1576040517f08c379a00000000000000000000000000000000000000000000000000000000081526004016105a890610caa565b60405180910390fd5b600260008373ffffffffffffffffffffffffffffffffffffffff1673ffffffffffffffffffffffffffffffffffffffff168152602001908152602001600020549050919050565b610603838383610608565b505050565b600073ffffffffffffffffffffffffffffffffffffffff168273ffffffffffffffffffffffffffffffffffffffff161415610678576040517f08c379a000000000000000000000000000000000000000000000000000000000815260040161066f90610d3c565b60405180910390fd5b8273ffffffffffffffffffffffffffffffffffffffff166106988261048e565b73ffffffffffffffffffffffffffffffffffffffff16146106ee576040517f08c379a00000000000000000000000000000000000000000000000000000000081526004016106e590610dce565b60405180910390fd5b6001600260008473ffffffffffffffffffffffffffffffffffffffff1673ffffffffffffffffffffffffffffffffffffffff168152602001908152602001600020600082825461073e9190610e1d565b925050819055506001600260008573ffffffffffffffffffffffffffffffffffffffff1673ffffffffffffffffffffffffffffffffffffffff16815260200190815260200160002060008282546107959190610e73565b92505081905550816001600083815260200190815260200160002060006101000a81548173ffffffffffffffffffffffffffffffffffffffff021916908373ffffffffffffffffffffffffffffffffffffffff160217905550808273ffffffffffffffffffffffffffffffffffffffff168473ffffffffffffffffffffffffffffffffffffffff167fddf252ad1be2c89b69c2b068fc378daa952ba7f163c4a11628f55a4df523b3ef60405160405180910390a4505050565b600080fd5b60007fffffffff0000000000000000000000000000000000000000000000000000000082169050919050565b61088881610853565b811461089357600080fd5b50565b6000813590506108a58161087f565b92915050565b6000602082840312156108c1576108c061084e565b5b60006108cf84828501610896565b91505092915050565b60008115159050919050565b6108ed816108d8565b82525050565b600060208201905061090860008301846108e4565b92915050565b600073ffffffffffffffffffffffffffffffffffffffff82169050919050565b60006109398261090e565b9050919050565b6109498161092e565b811461095457600080fd5b50565b60008135905061096681610940565b92915050565b6000819050919050565b61097f8161096c565b811461098a57600080fd5b50565b60008135905061099c81610976565b92915050565b600080604083850312156109b9576109b861084e565b5b60006109c785828601610957565b92505060206109d88582860161098d565b9150509250929050565b6000602082840312156109f8576109f761084e565b5b6000610a068482850161098d565b91505092915050565b610a188161092e565b82525050565b6000602082019050610a336000830184610a0f565b92915050565b600060208284031215610a4f57610a4e61084e565b5b6000610a5d84828501610957565b91505092915050565b610a6f8161096c565b82525050565b6000602082019050610a8a6000830184610a66565b92915050565b600080600060608486031215610aa957610aa861084e565b5b6000610ab786828701610957565b9350506020610ac886828701610957565b9250506040610ad98682870161098d565b9150509250925092565b600082825260208201905092915050565b7f455243313634203d20496e76616c696420696e746572666163652e0000000000600082015250565b6000610b2a601b83610ae3565b9150610b3582610af4565b602082019050919050565b60006020820190508181036000830152610b5981610b1d565b9050919050565b7f4572726f72202d20617070726f76616c2063757272656e74206f776e65720000600082015250565b6000610b96601e83610ae3565b9150610ba182610b60565b602082019050919050565b60006020820190508181036000830152610bc581610b89565b9050919050565b7f43757272656e742063616c6c6572206e6f7420746865206f776e657200000000600082015250565b6000610c02601c83610ae3565b9150610c0d82610bcc565b602082019050919050565b60006020820190508181036000830152610c3181610bf5565b9050919050565b7f4f776e657220717565727920666f72206e6f6e2d6578697374656e7420746f6b60008201527f656e000000000000000000000000000000000000000000000000000000000000602082015250565b6000610c94602283610ae3565b9150610c9f82610c38565b604082019050919050565b60006020820190508181036000830152610cc381610c87565b9050919050565b7f4552433732313a207472616e66657220746f20746865207a65726f206164647260008201527f6573732e00000000000000000000000000000000000000000000000000000000602082015250565b6000610d26602483610ae3565b9150610d3182610cca565b604082019050919050565b60006020820190508181036000830152610d5581610d19565b9050919050565b7f547279696e6720746f207472616e66657220746f6b656e20616e20616464726560008201527f737320646f6573206e6f74206f776e0000000000000000000000000000000000602082015250565b6000610db8602f83610ae3565b9150610dc382610d5c565b604082019050919050565b60006020820190508181036000830152610de781610dab565b9050919050565b7f4e487b7100000000000000000000000000000000000000000000000000000000600052601160045260246000fd5b6000610e288261096c565b9150610e338361096c565b9250827fffffffffffffffffffffffffffffffffffffffffffffffffffffffffffffffff03821115610e6857610e67610dee565b5b828201905092915050565b6000610e7e8261096c565b9150610e898361096c565b925082821015610e9c57610e9b610dee565b5b82820390509291505056fea26469706673582212205980846326c7b6110ae950aa751f99ca0f12f480ed0cc7b41d0617e9e5fb423164736f6c634300080b0033",
  "immutableReferences": {},
  "source": "// SPDX-License-Identifier: MIT\r\npragma solidity ^0.8.0;\r\n\r\nimport './interfaces/IERC721.sol';\r\nimport './ERC165.sol';\r\n\r\ncontract ERC721 is IERC721, ERC165{\r\n    event Transfer(\r\n        address indexed from, \r\n        address indexed to, \r\n        uint256 indexed tokenId\r\n    );\r\n\r\n    event Approval(\r\n        address indexed _from, \r\n        address indexed _to, \r\n        uint256 indexed _tokenId\r\n    );\r\n\r\n    constructor() {\r\n        _registerInterface(bytes4(keccak256('balanceOf(bytes4)') ^ \r\n            keccak256('ownerOf(bytes4)') ^ \r\n            keccak256('tranferFrom(bytes4)') ^ \r\n            keccak256('approve(bytes4)')));\r\n    }\r\n\r\n    mapping(uint256 => address) private _tokenOwner;\r\n    mapping(address => uint256) private _ownedTokensCount;\r\n    mapping(uint256 => address) private _tokenApprovals;\r\n\r\n    \r\n    function balanceOf(address _owner) public view override returns(uint256) {\r\n        require(_owner != address(0), 'Owner query for non-existent token');\r\n        return _ownedTokensCount[_owner];\r\n    }\r\n\r\n    function ownerOf(uint256 _tokenId) public view override returns(address) {\r\n        address owner = _tokenOwner[_tokenId];\r\n        require(owner != address(0), 'Owner query for non-existent token');\r\n        return owner;\r\n    }\r\n\r\n    function _exist(uint256 tokenId) internal view returns(bool) {\r\n        address owner = _tokenOwner[tokenId];\r\n\r\n        return owner != address(0);\r\n    }\r\n\r\n    function _mint(address to, uint256 tokenId) internal virtual{\r\n        require(to != address(0), 'ERC721: minting to the zero address.'); // endereo no pode ser nulo , ==0\r\n        require(!_exist(tokenId), 'ERC721: token already minted.'); // token existente , ==0\r\n\r\n        _tokenOwner[tokenId] = to;\r\n        _ownedTokensCount[to] += 1;\r\n\r\n        emit Transfer(address(0), to, tokenId);\r\n    }\r\n\r\n    function _transferFrom(address _from, address _to, uint256 _tokenId) internal {\r\n        require(_to != address(0), 'ERC721: tranfer to the zero address.');\r\n        require(ownerOf(_tokenId) == _from, 'Trying to tranfer token an address does not own');\r\n\r\n        _ownedTokensCount[_to] += 1;\r\n        _ownedTokensCount[_from] -= 1;\r\n        _tokenOwner[_tokenId] = _to;\r\n\r\n        emit Transfer(_from, _to, _tokenId);\r\n    }\r\n\r\n    //usar para debbugin\r\n    function tranferFrom(address _from, address _to, uint256 _tokenId) public {\r\n        _transferFrom(_from, _to, _tokenId);\r\n    }\r\n\r\n    function approve(address _to, uint256 tokenId) public override {\r\n        address owner = ownerOf(tokenId);\r\n\r\n        require(_to != owner, 'Error - approval current owner');\r\n        require(owner == msg.sender, 'Current caller not the owner');\r\n\r\n        _tokenApprovals[tokenId] = _to;\r\n\r\n        emit Approval(owner, _to, tokenId);\r\n    }\r\n}",
  "sourcePath": "D:\\Programao\\NFTs\\nft-main\\src\\contract\\ERC721.sol",
  "compiler": {
    "name": "solc",
    "version": "0.8.11+commit.d7f03943.Emscripten.clang"
  },
  "schemaVersion": "3.4.4",
  "updatedAt": "2022-04-18T23:51:40.760Z",
  "devdoc": {
    "kind": "dev",
    "methods": {},
    "version": 1
  },
  "userdoc": {
    "kind": "user",
    "methods": {},
    "version": 1
  }
}