{
  "contractName": "KryptoBirdz",
  "abi": [
    {
      "inputs": [],
      "stateMutability": "nonpayable",
      "type": "constructor"
    },
    {
      "anonymous": false,
      "inputs": [
        {
          "indexed": true,
          "internalType": "address",
          "name": "_from",
          "type": "address"
        },
        {
          "indexed": true,
          "internalType": "address",
          "name": "_to",
          "type": "address"
        },
        {
          "indexed": true,
          "internalType": "uint256",
          "name": "_tokenId",
          "type": "uint256"
        }
      ],
      "name": "Approval",
      "type": "event"
    },
    {
      "anonymous": false,
      "inputs": [
        {
          "indexed": true,
          "internalType": "address",
          "name": "from",
          "type": "address"
        },
        {
          "indexed": true,
          "internalType": "address",
          "name": "to",
          "type": "address"
        },
        {
          "indexed": true,
          "internalType": "uint256",
          "name": "tokenId",
          "type": "uint256"
        }
      ],
      "name": "Transfer",
      "type": "event"
    },
    {
      "inputs": [
        {
          "internalType": "bytes4",
          "name": "interfaceId",
          "type": "bytes4"
        }
      ],
      "name": "_registerInterface",
      "outputs": [],
      "stateMutability": "nonpayable",
      "type": "function"
    },
    {
      "inputs": [
        {
          "internalType": "bytes4",
          "name": "",
          "type": "bytes4"
        }
      ],
      "name": "_suportedInterfaces",
      "outputs": [
        {
          "internalType": "bool",
          "name": "",
          "type": "bool"
        }
      ],
      "stateMutability": "view",
      "type": "function",
      "constant": true
    },
    {
      "inputs": [
        {
          "internalType": "address",
          "name": "_to",
          "type": "address"
        },
        {
          "internalType": "uint256",
          "name": "tokenId",
          "type": "uint256"
        }
      ],
      "name": "approve",
      "outputs": [],
      "stateMutability": "nonpayable",
      "type": "function"
    },
    {
      "inputs": [
        {
          "internalType": "address",
          "name": "_owner",
          "type": "address"
        }
      ],
      "name": "balanceOf",
      "outputs": [
        {
          "internalType": "uint256",
          "name": "",
          "type": "uint256"
        }
      ],
      "stateMutability": "view",
      "type": "function",
      "constant": true
    },
    {
      "inputs": [
        {
          "internalType": "uint256",
          "name": "",
          "type": "uint256"
        }
      ],
      "name": "kryptoBird",
      "outputs": [
        {
          "internalType": "string",
          "name": "",
          "type": "string"
        }
      ],
      "stateMutability": "view",
      "type": "function",
      "constant": true
    },
    {
      "inputs": [],
      "name": "name",
      "outputs": [
        {
          "internalType": "string",
          "name": "",
          "type": "string"
        }
      ],
      "stateMutability": "view",
      "type": "function",
      "constant": true
    },
    {
      "inputs": [
        {
          "internalType": "uint256",
          "name": "_tokenId",
          "type": "uint256"
        }
      ],
      "name": "ownerOf",
      "outputs": [
        {
          "internalType": "address",
          "name": "",
          "type": "address"
        }
      ],
      "stateMutability": "view",
      "type": "function",
      "constant": true
    },
    {
      "inputs": [
        {
          "internalType": "bytes4",
          "name": "interfaceID",
          "type": "bytes4"
        }
      ],
      "name": "supportsInterface",
      "outputs": [
        {
          "internalType": "bool",
          "name": "",
          "type": "bool"
        }
      ],
      "stateMutability": "view",
      "type": "function",
      "constant": true
    },
    {
      "inputs": [],
      "name": "symbol",
      "outputs": [
        {
          "internalType": "string",
          "name": "",
          "type": "string"
        }
      ],
      "stateMutability": "view",
      "type": "function",
      "constant": true
    },
    {
      "inputs": [
        {
          "internalType": "uint256",
          "name": "index",
          "type": "uint256"
        }
      ],
      "name": "tokenByIndex",
      "outputs": [
        {
          "internalType": "uint256",
          "name": "",
          "type": "uint256"
        }
      ],
      "stateMutability": "view",
      "type": "function",
      "constant": true
    },
    {
      "inputs": [
        {
          "internalType": "address",
          "name": "to",
          "type": "address"
        },
        {
          "internalType": "uint256",
          "name": "index",
          "type": "uint256"
        }
      ],
      "name": "tokenOfOwnerByIndex",
      "outputs": [
        {
          "internalType": "uint256",
          "name": "",
          "type": "uint256"
        }
      ],
      "stateMutability": "view",
      "type": "function",
      "constant": true
    },
    {
      "inputs": [],
      "name": "totalSupply",
      "outputs": [
        {
          "internalType": "uint256",
          "name": "",
          "type": "uint256"
        }
      ],
      "stateMutability": "view",
      "type": "function",
      "constant": true
    },
    {
      "inputs": [
        {
          "internalType": "address",
          "name": "_from",
          "type": "address"
        },
        {
          "internalType": "address",
          "name": "_to",
          "type": "address"
        },
        {
          "internalType": "uint256",
          "name": "_tokenId",
          "type": "uint256"
        }
      ],
      "name": "tranferFrom",
      "outputs": [],
      "stateMutability": "nonpayable",
      "type": "function"
    },
    {
      "inputs": [
        {
          "internalType": "string",
          "name": "_kryptoBird",
          "type": "string"
        }
      ],
      "name": "mint",
      "outputs": [],
      "stateMutability": "payable",
      "type": "function",
      "payable": true
    }
  ],
  "bytecode": "0x60806040523480156200001157600080fd5b506040518060400160405280600b81526020017f4b727970746f42697264730000000000000000000000000000000000000000008152506040518060400160405280600681526020017f4b424952445300000000000000000000000000000000000000000000000000008152508181620000d37f068417d99438efa57c62b8a2f5c6aa9edc2f5916afbf754b62df6d6bc528f1637f01ffc9a7a5cef8baa21ed3c5c0d7e23accb804b619e9333b597f47a0d84076e2186200026e60201b60201c565b620001267f13b182f4c0e5b2efbac0efe6cf6d756c8b89f4b79c5707a043ed9ea740574ee97f7feaf19471f34a12a7eaf32d5f3090aa2260ea8624dc8a138e74e0bf0f623076186200026e60201b60201c565b81600190805190602001906200013e92919062000346565b5080600290805190602001906200015792919062000346565b505050620001f17f8c51fd5fcf1f456ec4eb0f32f68d83471264fe082fac12bcbfd2fa4be9eed6c77f1176b7b0bba5f97eb329b5b88bee81cec6bcd49a0d96c6c4ebe3c82134a0bc437f3a6eb71757dfc6e784c1459d26270140c2c147d95ca985c80026fc5301c3eca17f8a7e378434598edc36d108689a030cbc9d7d465de4f74c71bae1028eed6a881b1818186200026e60201b60201c565b620002667f8230223f691b981717299fae9549350a0d894555723531f02108b1f522c1a7977f6da5e1284143cdd2d15038a59bde3be031250f00291d64494c12d967b3a4e0c37fc53637662700e6c65104059db8bba34439e0c32483ab7c34e3ccae52c739549518186200026e60201b60201c565b5050620004de565b63ffffffff60e01b817bffffffffffffffffffffffffffffffffffffffffffffffffffffffff19161415620002da576040517f08c379a0000000000000000000000000000000000000000000000000000000008152600401620002d19062000457565b60405180910390fd5b6001600080837bffffffffffffffffffffffffffffffffffffffffffffffffffffffff19167bffffffffffffffffffffffffffffffffffffffffffffffffffffffff1916815260200190815260200160002060006101000a81548160ff02191690831515021790555050565b8280546200035490620004a8565b90600052602060002090601f016020900481019282620003785760008555620003c4565b82601f106200039357805160ff1916838001178555620003c4565b82800160010185558215620003c4579182015b82811115620003c3578251825591602001919060010190620003a6565b5b509050620003d39190620003d7565b5090565b5b80821115620003f2576000816000905550600101620003d8565b5090565b600082825260208201905092915050565b7f455243313634203d20496e76616c696420696e746572666163652e0000000000600082015250565b60006200043f601b83620003f6565b91506200044c8262000407565b602082019050919050565b60006020820190508181036000830152620004728162000430565b9050919050565b7f4e487b7100000000000000000000000000000000000000000000000000000000600052602260045260246000fd5b60006002820490506001821680620004c157607f821691505b60208210811415620004d857620004d762000479565b5b50919050565b611e4e80620004ee6000396000f3fe6080604052600436106100dd5760003560e01c80634f6ccce71161007f57806370a082311161005957806370a08231146102f85780639264a1691461033557806395d89b411461035e578063d85d3d2714610389576100dd565b80634f6ccce71461024157806350ee2e511461027e5780636352211e146102bb576100dd565b806306fdde03116100bb57806306fdde0314610185578063095ea7b3146101b057806318160ddd146101d95780632f745c5914610204576100dd565b806301ffc9a7146100e2578063057e4ee61461011f578063068417d91461015c575b600080fd5b3480156100ee57600080fd5b50610109600480360381019061010491906112cf565b6103a5565b6040516101169190611317565b60405180910390f35b34801561012b57600080fd5b5061014660048036038101906101419190611368565b61040c565b604051610153919061142e565b60405180910390f35b34801561016857600080fd5b50610183600480360381019061017e91906112cf565b6104b8565b005b34801561019157600080fd5b5061019a61058d565b6040516101a7919061142e565b60405180910390f35b3480156101bc57600080fd5b506101d760048036038101906101d291906114ae565b61061f565b005b3480156101e557600080fd5b506101ee6107bb565b6040516101fb91906114fd565b60405180910390f35b34801561021057600080fd5b5061022b600480360381019061022691906114ae565b6107c8565b60405161023891906114fd565b60405180910390f35b34801561024d57600080fd5b5061026860048036038101906102639190611368565b610878565b60405161027591906114fd565b60405180910390f35b34801561028a57600080fd5b506102a560048036038101906102a091906112cf565b6108e9565b6040516102b29190611317565b60405180910390f35b3480156102c757600080fd5b506102e260048036038101906102dd9190611368565b610909565b6040516102ef9190611527565b60405180910390f35b34801561030457600080fd5b5061031f600480360381019061031a9190611542565b6109bb565b60405161032c91906114fd565b60405180910390f35b34801561034157600080fd5b5061035c6004803603810190610357919061156f565b610a73565b005b34801561036a57600080fd5b50610373610a83565b604051610380919061142e565b60405180910390f35b6103a3600480360381019061039e91906116f7565b610b15565b005b6000806000837bffffffffffffffffffffffffffffffffffffffffffffffffffffffff19167bffffffffffffffffffffffffffffffffffffffffffffffffffffffff1916815260200190815260200160002060009054906101000a900460ff169050919050565b600a818154811061041c57600080fd5b9060005260206000200160009150905080546104379061176f565b80601f01602080910402602001604051908101604052809291908181526020018280546104639061176f565b80156104b05780601f10610485576101008083540402835291602001916104b0565b820191906000526020600020905b81548152906001019060200180831161049357829003601f168201915b505050505081565b63ffffffff60e01b817bffffffffffffffffffffffffffffffffffffffffffffffffffffffff19161415610521576040517f08c379a0000000000000000000000000000000000000000000000000000000008152600401610518906117ed565b60405180910390fd5b6001600080837bffffffffffffffffffffffffffffffffffffffffffffffffffffffff19167bffffffffffffffffffffffffffffffffffffffffffffffffffffffff1916815260200190815260200160002060006101000a81548160ff02191690831515021790555050565b60606001805461059c9061176f565b80601f01602080910402602001604051908101604052809291908181526020018280546105c89061176f565b80156106155780601f106105ea57610100808354040283529160200191610615565b820191906000526020600020905b8154815290600101906020018083116105f857829003601f168201915b5050505050905090565b600061062a82610909565b90508073ffffffffffffffffffffffffffffffffffffffff168373ffffffffffffffffffffffffffffffffffffffff16141561069b576040517f08c379a000000000000000000000000000000000000000000000000000000000815260040161069290611859565b60405180910390fd5b3373ffffffffffffffffffffffffffffffffffffffff168173ffffffffffffffffffffffffffffffffffffffff1614610709576040517f08c379a0000000000000000000000000000000000000000000000000000000008152600401610700906118c5565b60405180910390fd5b826005600084815260200190815260200160002060006101000a81548173ffffffffffffffffffffffffffffffffffffffff021916908373ffffffffffffffffffffffffffffffffffffffff160217905550818373ffffffffffffffffffffffffffffffffffffffff168273ffffffffffffffffffffffffffffffffffffffff167f8c5be1e5ebec7d5bd14f71427d1e84f3dd0314c0f7b2291e5b200ac8c7c3b92560405160405180910390a4505050565b6000600680549050905090565b60006107d3836109bb565b8210610814576040517f08c379a000000000000000000000000000000000000000000000000000000000815260040161080b90611931565b60405180910390fd5b600860008473ffffffffffffffffffffffffffffffffffffffff1673ffffffffffffffffffffffffffffffffffffffff168152602001908152602001600020828154811061086557610864611951565b5b9060005260206000200154905092915050565b60006108826107bb565b82106108c3576040517f08c379a00000000000000000000000000000000000000000000000000000000081526004016108ba906119cc565b60405180910390fd5b600682815481106108d7576108d6611951565b5b90600052602060002001549050919050565b60006020528060005260406000206000915054906101000a900460ff1681565b6000806003600084815260200190815260200160002060009054906101000a900473ffffffffffffffffffffffffffffffffffffffff169050600073ffffffffffffffffffffffffffffffffffffffff168173ffffffffffffffffffffffffffffffffffffffff1614156109b2576040517f08c379a00000000000000000000000000000000000000000000000000000000081526004016109a990611a5e565b60405180910390fd5b80915050919050565b60008073ffffffffffffffffffffffffffffffffffffffff168273ffffffffffffffffffffffffffffffffffffffff161415610a2c576040517f08c379a0000000000000000000000000000000000000000000000000000000008152600401610a2390611a5e565b60405180910390fd5b600460008373ffffffffffffffffffffffffffffffffffffffff1673ffffffffffffffffffffffffffffffffffffffff168152602001908152602001600020549050919050565b610a7e838383610c18565b505050565b606060028054610a929061176f565b80601f0160208091040260200160405190810160405280929190818152602001828054610abe9061176f565b8015610b0b5780601f10610ae057610100808354040283529160200191610b0b565b820191906000526020600020905b815481529060010190602001808311610aee57829003601f168201915b5050505050905090565b600b81604051610b259190611aba565b908152602001604051809103902060009054906101000a900460ff1615610b81576040517f08c379a0000000000000000000000000000000000000000000000000000000008152600401610b7890611b1d565b60405180910390fd5b600a81908060018154018082558091505060019003906000526020600020016000909190919091509080519060200190610bbc9291906111c0565b5060006001600a80549050610bd19190611b6c565b9050610bdd3382610e5e565b6001600b83604051610bef9190611aba565b908152602001604051809103902060006101000a81548160ff0219169083151502179055505050565b600073ffffffffffffffffffffffffffffffffffffffff168273ffffffffffffffffffffffffffffffffffffffff161415610c88576040517f08c379a0000000000000000000000000000000000000000000000000000000008152600401610c7f90611c12565b60405180910390fd5b8273ffffffffffffffffffffffffffffffffffffffff16610ca882610909565b73ffffffffffffffffffffffffffffffffffffffff1614610cfe576040517f08c379a0000000000000000000000000000000000000000000000000000000008152600401610cf590611ca4565b60405180910390fd5b6001600460008473ffffffffffffffffffffffffffffffffffffffff1673ffffffffffffffffffffffffffffffffffffffff1681526020019081526020016000206000828254610d4e9190611cc4565b925050819055506001600460008573ffffffffffffffffffffffffffffffffffffffff1673ffffffffffffffffffffffffffffffffffffffff1681526020019081526020016000206000828254610da59190611b6c565b92505081905550816003600083815260200190815260200160002060006101000a81548173ffffffffffffffffffffffffffffffffffffffff021916908373ffffffffffffffffffffffffffffffffffffffff160217905550808273ffffffffffffffffffffffffffffffffffffffff168473ffffffffffffffffffffffffffffffffffffffff167fddf252ad1be2c89b69c2b068fc378daa952ba7f163c4a11628f55a4df523b3ef60405160405180910390a4505050565b610e688282610e7f565b610e7181611041565b610e7b828261108a565b5050565b600073ffffffffffffffffffffffffffffffffffffffff168273ffffffffffffffffffffffffffffffffffffffff161415610eef576040517f08c379a0000000000000000000000000000000000000000000000000000000008152600401610ee690611d8c565b60405180910390fd5b610ef88161114e565b15610f38576040517f08c379a0000000000000000000000000000000000000000000000000000000008152600401610f2f90611df8565b60405180910390fd5b816003600083815260200190815260200160002060006101000a81548173ffffffffffffffffffffffffffffffffffffffff021916908373ffffffffffffffffffffffffffffffffffffffff1602179055506001600460008473ffffffffffffffffffffffffffffffffffffffff1673ffffffffffffffffffffffffffffffffffffffff1681526020019081526020016000206000828254610fda9190611cc4565b92505081905550808273ffffffffffffffffffffffffffffffffffffffff16600073ffffffffffffffffffffffffffffffffffffffff167fddf252ad1be2c89b69c2b068fc378daa952ba7f163c4a11628f55a4df523b3ef60405160405180910390a45050565b6006805490506007600083815260200190815260200160002081905550600681908060018154018082558091505060019003906000526020600020016000909190919091505550565b600860008373ffffffffffffffffffffffffffffffffffffffff1673ffffffffffffffffffffffffffffffffffffffff168152602001908152602001600020805490506009600083815260200190815260200160002081905550600860008373ffffffffffffffffffffffffffffffffffffffff1673ffffffffffffffffffffffffffffffffffffffff1681526020019081526020016000208190806001815401808255809150506001900390600052602060002001600090919091909150555050565b6000806003600084815260200190815260200160002060009054906101000a900473ffffffffffffffffffffffffffffffffffffffff169050600073ffffffffffffffffffffffffffffffffffffffff168173ffffffffffffffffffffffffffffffffffffffff161415915050919050565b8280546111cc9061176f565b90600052602060002090601f0160209004810192826111ee5760008555611235565b82601f1061120757805160ff1916838001178555611235565b82800160010185558215611235579182015b82811115611234578251825591602001919060010190611219565b5b5090506112429190611246565b5090565b5b8082111561125f576000816000905550600101611247565b5090565b6000604051905090565b600080fd5b600080fd5b60007fffffffff0000000000000000000000000000000000000000000000000000000082169050919050565b6112ac81611277565b81146112b757600080fd5b50565b6000813590506112c9816112a3565b92915050565b6000602082840312156112e5576112e461126d565b5b60006112f3848285016112ba565b91505092915050565b60008115159050919050565b611311816112fc565b82525050565b600060208201905061132c6000830184611308565b92915050565b6000819050919050565b61134581611332565b811461135057600080fd5b50565b6000813590506113628161133c565b92915050565b60006020828403121561137e5761137d61126d565b5b600061138c84828501611353565b91505092915050565b600081519050919050565b600082825260208201905092915050565b60005b838110156113cf5780820151818401526020810190506113b4565b838111156113de576000848401525b50505050565b6000601f19601f8301169050919050565b600061140082611395565b61140a81856113a0565b935061141a8185602086016113b1565b611423816113e4565b840191505092915050565b6000602082019050818103600083015261144881846113f5565b905092915050565b600073ffffffffffffffffffffffffffffffffffffffff82169050919050565b600061147b82611450565b9050919050565b61148b81611470565b811461149657600080fd5b50565b6000813590506114a881611482565b92915050565b600080604083850312156114c5576114c461126d565b5b60006114d385828601611499565b92505060206114e485828601611353565b9150509250929050565b6114f781611332565b82525050565b600060208201905061151260008301846114ee565b92915050565b61152181611470565b82525050565b600060208201905061153c6000830184611518565b92915050565b6000602082840312156115585761155761126d565b5b600061156684828501611499565b91505092915050565b6000806000606084860312156115885761158761126d565b5b600061159686828701611499565b93505060206115a786828701611499565b92505060406115b886828701611353565b9150509250925092565b600080fd5b600080fd5b7f4e487b7100000000000000000000000000000000000000000000000000000000600052604160045260246000fd5b611604826113e4565b810181811067ffffffffffffffff82111715611623576116226115cc565b5b80604052505050565b6000611636611263565b905061164282826115fb565b919050565b600067ffffffffffffffff821115611662576116616115cc565b5b61166b826113e4565b9050602081019050919050565b82818337600083830152505050565b600061169a61169584611647565b61162c565b9050828152602081018484840111156116b6576116b56115c7565b5b6116c1848285611678565b509392505050565b600082601f8301126116de576116dd6115c2565b5b81356116ee848260208601611687565b91505092915050565b60006020828403121561170d5761170c61126d565b5b600082013567ffffffffffffffff81111561172b5761172a611272565b5b611737848285016116c9565b91505092915050565b7f4e487b7100000000000000000000000000000000000000000000000000000000600052602260045260246000fd5b6000600282049050600182168061178757607f821691505b6020821081141561179b5761179a611740565b5b50919050565b7f455243313634203d20496e76616c696420696e746572666163652e0000000000600082015250565b60006117d7601b836113a0565b91506117e2826117a1565b602082019050919050565b60006020820190508181036000830152611806816117ca565b9050919050565b7f4572726f72202d20617070726f76616c2063757272656e74206f776e65720000600082015250565b6000611843601e836113a0565b915061184e8261180d565b602082019050919050565b6000602082019050818103600083015261187281611836565b9050919050565b7f43757272656e742063616c6c6572206e6f7420746865206f776e657200000000600082015250565b60006118af601c836113a0565b91506118ba82611879565b602082019050919050565b600060208201905081810360008301526118de816118a2565b9050919050565b7f4f776e657220696e646578206973206f757420626f756e640000000000000000600082015250565b600061191b6018836113a0565b9150611926826118e5565b602082019050919050565b6000602082019050818103600083015261194a8161190e565b9050919050565b7f4e487b7100000000000000000000000000000000000000000000000000000000600052603260045260246000fd5b7f476c6f62616c20696e646578206973206f757420626f756e6400000000000000600082015250565b60006119b66019836113a0565b91506119c182611980565b602082019050919050565b600060208201905081810360008301526119e5816119a9565b9050919050565b7f4f776e657220717565727920666f72206e6f6e2d6578697374656e7420746f6b60008201527f656e000000000000000000000000000000000000000000000000000000000000602082015250565b6000611a486022836113a0565b9150611a53826119ec565b604082019050919050565b60006020820190508181036000830152611a7781611a3b565b9050919050565b600081905092915050565b6000611a9482611395565b611a9e8185611a7e565b9350611aae8185602086016113b1565b80840191505092915050565b6000611ac68284611a89565b915081905092915050565b7f4572726f72206b726970746f4269726420616c72656164792065786973742e00600082015250565b6000611b07601f836113a0565b9150611b1282611ad1565b602082019050919050565b60006020820190508181036000830152611b3681611afa565b9050919050565b7f4e487b7100000000000000000000000000000000000000000000000000000000600052601160045260246000fd5b6000611b7782611332565b9150611b8283611332565b925082821015611b9557611b94611b3d565b5b828203905092915050565b7f4552433732313a207472616e66657220746f20746865207a65726f206164647260008201527f6573732e00000000000000000000000000000000000000000000000000000000602082015250565b6000611bfc6024836113a0565b9150611c0782611ba0565b604082019050919050565b60006020820190508181036000830152611c2b81611bef565b9050919050565b7f547279696e6720746f207472616e66657220746f6b656e20616e20616464726560008201527f737320646f6573206e6f74206f776e0000000000000000000000000000000000602082015250565b6000611c8e602f836113a0565b9150611c9982611c32565b604082019050919050565b60006020820190508181036000830152611cbd81611c81565b9050919050565b6000611ccf82611332565b9150611cda83611332565b9250827fffffffffffffffffffffffffffffffffffffffffffffffffffffffffffffffff03821115611d0f57611d0e611b3d565b5b828201905092915050565b7f4552433732313a206d696e74696e6720746f20746865207a65726f206164647260008201527f6573732e00000000000000000000000000000000000000000000000000000000602082015250565b6000611d766024836113a0565b9150611d8182611d1a565b604082019050919050565b60006020820190508181036000830152611da581611d69565b9050919050565b7f4552433732313a20746f6b656e20616c7265616479206d696e7465642e000000600082015250565b6000611de2601d836113a0565b9150611ded82611dac565b602082019050919050565b60006020820190508181036000830152611e1181611dd5565b905091905056fea26469706673582212204725538503c018385ae2cdb7ffda8902b529112b987d383cf1eab263f1c15fcd64736f6c634300080b0033",
  "immutableReferences": {},
  "source": "// SPDX-License-Identifier: MIT\r\npragma solidity ^0.8.0;\r\n\r\nimport './ERC721Connector.sol';\r\n\r\ncontract KryptoBirdz is ERC721Connector{\r\n    string[] public kryptoBird;\r\n\r\n    mapping(string => bool) _kryptoBirdzExists;\r\n\r\n    function mint (string memory _kryptoBird) public payable {\r\n        require(!_kryptoBirdzExists[_kryptoBird], 'Error kriptoBird already exist.');\r\n        kryptoBird.push(_kryptoBird);\r\n        uint256 _id = kryptoBird.length - 1;\r\n\r\n        _mint(msg.sender, _id);\r\n\r\n        _kryptoBirdzExists[_kryptoBird] = true;\r\n    }\r\n\r\n    constructor() ERC721Connector('KryptoBirds', 'KBIRDS'){\r\n        \r\n    }\r\n}\r\n",
  "sourcePath": "D:\\Programao\\NFTs\\nft-main\\src\\contract\\KryptoBirdz.sol",
  "compiler": {
    "name": "solc",
    "version": "0.8.11+commit.d7f03943.Emscripten.clang"
  },
  "schemaVersion": "3.4.4",
  "updatedAt": "2022-04-18T23:51:49.871Z",
  "networkType": "ethereum",
  "devdoc": {
    "kind": "dev",
    "methods": {},
    "version": 1
  },
  "userdoc": {
    "kind": "user",
    "methods": {},
    "version": 1
  }
}